:020000040800F2
:1000000000000220E9B50008612100086321000812
:100010006521000867210008692100080000000030
:100020000000000000000000000000006B2100083C
:100030006D210008000000006F21000871210008F8
:1000400039B6000839B6000839B6000839B60008D4
:1000500039B6000839B6000839B6000839B60008C4
:1000600039B6000839B6000839B600087921000809
:1000700039B6000839B6000839B6000839B60008A4
:1000800039B6000839B6000839B6000839B6000894
:1000900039B6000839B6000839B6000839B6000884
:1000A00039B6000839B6000839B6000839B6000874
:1000B00039B6000839B6000839B6000839B6000864
:1000C00039B6000839B6000839B600088921000899
:1000D00039B6000839B6000839B6000839B6000844
:1000E00039B6000839B600080000000039B600082B
:1000F00039B6000839B6000839B6000839B6000824
:1001000039B6000839B6000839B6000839B6000813
:1001100039B6000839B6000839B6000839B6000803
:1001200039B6000839B6000839B6000839B60008F3
:1001300039B6000839B6000839B6000839B60008E3
:1001400000000000000000000000000000000000AF
:1001500039B6000839B6000839B6000839B60008C3
:1001600039B6000839B6000839B6000839B60008B3
:1001700039B6000839B6000839B60008000000009A
:1001800039B6000839B6000839B6000839B6000893
:1001900039B6000839B6000839B6000839B6000883
:1001A00099210008A921000839B6000839B60008CD
:1001B00039B6000839B6000839B6000839B6000863
:1001C00039B6000839B6000839B6000839B6000853
:1001D00039B60008B921000839B6000839B6000858
:1001E00039B6000839B6000839B6000839B6000833
:1001F00039B6000839B6000839B6000839B6000823
:1002000039B6000839B6000839B6000839B6000812
:1002100039B6000839B6000839B6000839B6000802
:1002200039B6000839B6000839B6000800000000E9
:1002300039B6000839B600080000000039B60008D9
:1002400039B6000839B6000839B6000839B60008D2
:1002500039B6000839B6000839B6000839B60008C2
:1002600039B6000839B6000839B6000839B60008B2
:1002700039B6000839B6000839B600080000000099
:1002800039B6000839B6000839B600080000000089
:080290000000000039B600086F
:1002A00001F0FF01102A2BDB10F0070F08D010F827
:1002B000013B013A8B422DD010F0070F42B3F6D12B
:1002C000F0B441EA012141EA014122F007047FF044
:1002D00000070023F0E80256083C85EA010586EA9B
:1002E000010685FA47F5A3FA87F586FA47F6A5FAD7
:1002F00087F68EB9EED1F0BC01F0FF0102F00702E3
:1003000032B110F8013B013A83EA010313B1F8D18D
:100310000020704701387047002D06BF354603386E
:10032000073815F0010F07D1013015F4807F02BFA7
:10033000013015F4C03F0130F0BC0138704700BFF8
:100340000348044B834202D0034B03B11847704764
:100350009C0000209C000020000000000548064B87
:100360001B1AD90F01EBA301491002D0034B03B1B3
:10037000184770479C0000209C00002000000000EF
:1003800010B5064C237843B9FFF7DAFF044B13B1DD
:100390000448AFF300800123237010BD9C000020AF
:1003A0000000000080D1000808B5054B1BB10549CD
:1003B0000548AFF30080BDE80840FFF7CFBF00BF9E
:1003C00000000000A000002080D10008BFF34F8F84
:1003D000BFF36F8F084B0022C3F85022BFF34F8F3B
:1003E000BFF36F8F5A6942F400325A61BFF34F8FE7
:1003F000BFF36F8F704700BF00ED00E010B4154BE6
:100400000022C3F88420BFF34F8FD3F88040C4F399
:100410004E3000E01846C4F3C90243F6E07303EA25
:10042000401343EA82730B49C1F860321346013A24
:10043000002BF2D1431E0028ECD1BFF34F8F4B6944
:1004400043F480334B61BFF34F8FBFF36F8F5DF881
:10045000044B704700ED00E08842A8BF0846704793
:100460008842B8BF0846704708B50021FFF7F8FF7B
:100470004021FFF7F1FF08BD014402E0002300F82E
:10048000013B8842FAD17047B0F5977F00F0A88011
:1004900049DCBE2830DC7128C0F2A48071384D28B8
:1004A00028D8DFE800F09B27272727272799272729
:1004B00027272727972727272727272795272727EE
:1004C00027272727932727272727272791272727E6
:1004D00027272727278F2727272727272727278DDE
:1004E0002727272727272727278B27272727272738
:1004F000272727A100207047F02877D007DCD628CF
:1005000076D0E22876D0CA2876D11920704740F2FA
:100510000D13984272D040F21D13984270D0FE28FD
:1005200070D115207047B0F5FE7F6DD012DD40F21E
:10053000A62398427AD035DCB0F5177F78D02CDC32
:1005400040F21A23984275D040F23A23984273D170
:1005500007207047B0F5CA7F58D012DCB0F5B47FE1
:1005600056D008DCB0F5A07F54D040F25313984227
:1005700052D11020704740F27D1398424ED10E2088
:10058000704740F2C51398424AD0B0F5F07F49D089
:10059000B0F5D67F48D10C207047B0F5207F4DD103
:1005A0000520704740F2FA23984249D0B0F54A7FBF
:1005B00048D0B0F5347F47D1032070471B207047E7
:1005C0001C2070471D2070471E2070471F20704759
:1005D0002020704721207047222070472320704739
:1005E00012207047002070471A207047162070476D
:1005F000182070471720704700207047142070475C
:100600001320704700207047092070470D20704765
:100610000F2070471120704700207047002070475E
:100620000B2070470A207047002070470420704755
:100630000620704708207047002070470020704750
:10064000022070470120704700207047034600F0E9
:100650000F020549885C13F0100F01D0C0F1FF00B4
:100660001F2B00DD4042704754D2000808B50B7CB8
:10067000072B08BF01318B7B03F00303032B19D831
:10068000DFE803F002070D1202F03F00FFF7DEFF84
:1006900008BDD00000F4FC70C0F1FF00F8E712F0D4
:1006A000200F09D1FF20F3E7D0F8B005C0F3080010
:1006B000FF38EDE70020EBE76FF0FE00E8E7000011
:1006C00070B52DED028B0C4600230B628B885BB35B
:1006D000054607EE903AB8EE678A0B7C062B18BFEA
:1006E000042B28D1CB7C1A09497B03F00F0601FBB0
:1006F00002F22146FFF7BAFF06FB00F307EE903A3D
:10070000F8EEE77A9FED1B7A67EE877A38EE278A54
:10071000D5ED437AF8EEE77A67EE887ADFED166A70
:1007200086EEA77A84ED087A237823F001032370FC
:10073000BDEC028B70BD002BEAD14A7C002AE7D0C9
:10074000B0F9B6350D4981FB0301A1EBE37101EB73
:1007500041015B1A1BB2C3F102039B001A4102F074
:100760000F02074B03EB8203D3ED007A88EE278A52
:10077000CEE700BF0000003C3A7C584A565555551C
:1007800014D2000870B50C468D780B7C072B08D06E
:100790002846FFF769FEA076237823F00203237032
:1007A00070BD4B7B0E7D320903FB02F2FFF75EFF4B
:1007B00006F00F0606FB00F005EBA015E8E70000C9
:1007C00038B50446837A0F4A03EBC30012F9205070
:1007D00005F5567502EB800292F92330A088084493
:1007E00080B2A08003F17101FFF73AFEA080294694
:1007F00080B2FFF731FEA080237843F0010323701D
:1008000038BD00BF0C7A080810B5044611F0F00F8F
:100810000AD00911A0780844FFF726FEA0702378BB
:1008200043F00203237010BD01F00F014942F1E7CC
:100830002DE9F04F83B0804690F9B5356BB990F94A
:10084000B42500EBE20494F8181102F0070201202D
:1008500000FA02F20A4384F8182101335BB288F8E7
:10086000B535402B15D0D8F8FC2098F9B435D25CBA
:1008700098F9B53503EB821398F808B10BFB03F335
:10088000D8F8002102EB830A4FF0FF3301930024D4
:1008900095E098F9B43501335BB288F8B43598F82F
:1008A0000421934203D0002388F8B535DBE798F99B
:1008B000053188F8B435F6E73E099CE007F00F07EC
:1008C000A3E004EBC40308EB8303002283F82D218B
:1008D0002DB32846FFF7D8FD04EBC40308EB8303D0
:1008E00093F8363103EBC303C04A02EB83031B5674
:1008F0001D44032E13D0ED2E27D004EBC40308EBC8
:100900008303A3F8305193F82C2142F0010283F8BD
:100910002C210022C3F84821002283F839210F2E10
:100920001AD8032E4AD3033E0C2E47D8DFE816F020
:100930002B00A10038004600C50021012801460017
:1009400041014E0162014600BE0104EBC40308EB05
:100950008303A3F83251E2E7EE2E2FD8E12E2DD3F8
:10096000E13E0D2E2AD8DFE816F0CC00DA0029008F
:100970004E01550162018F0196012900E800F60041
:10098000290029009E012FB904EBC40308EB83035F
:1009900093F83E7104EBC40308EB830383F83E71C4
:1009A000002D64D104EBC40308EB8303B3F8345186
:1009B00004EBC40308EB8303A3F834510134A345CB
:1009C00040F38D810AEB84021AF82450937825F0C5
:1009D0000F0949EA13192D0205F4706551780D438A
:1009E0001B0203F47063D7781F431A0AB3F5606FD4
:1009F0003FF462AFD6B204EBC40308EB830383F881
:100A00003C610E2A3FF45AAFFFB204EBC40308EB7B
:100A1000830383F83D71B9F1000F3FF459AFB9F189
:100A20001F0F3FF74EAFD8F8F820C9EB09135B0052
:100A30000C33134404EBC40208EB820181F82D91BE
:100A40009A7802F00F02009181F836214021D8787F
:100A5000FFF702FD009981F82E01ED2E3FF438AF2B
:100A600091F82C2142F0020281F82C2130E7ADB23E
:100A70009EE717F00F030DD05BB207F0F0020F2FC7
:100A800011D952B2134304EBC40208EB820282F87C
:100A90003F3193E704EBC40308EB830393F83F3142
:100AA00003F00F03E9E704EBC40208EB820292F8BB
:100AB0003F2122F00F0252B2E4E717F00F030DD0EE
:100AC0005BB207F0F0020F2F11D952B2134304EBBF
:100AD000C40208EB820282F840316FE704EBC403E2
:100AE00008EB830393F8403103F00F03E9E704EBCD
:100AF000C40208EB820292F8402122F00F0252B2A7
:100B0000E4E72FB904EBC40308EB830393F84271C5
:100B100004EBC40308EB830383F842714EE72FB95B
:100B200004EBC40308EB830393F8437104EBC403A1
:100B300008EB830383F8437140E72FB904EBC40348
:100B400008EB830393F8447104EBC40308EB8303BD
:100B500083F8447132E72FB904EBC40308EB830335
:100B600093F8457104EBC40308EB830383F84571E4
:100B700024E704EBC40308EB830383F82F711DE71C
:100B800055EA09093FF41AAF2FB904EBC40308EB87
:100B9000830393F8417104EBC40308EB830383F8E8
:100BA00041713F0207EE907AF8EEE77AC3ED527A90
:100BB00004E798F80431BB4201D97FB200E0002776
:100BC00088F8B475FF2388F8B535F7E63846FFF79F
:100BD0004BFC04EBC40308EB830383F82E0193F86A
:100BE0002C2142F0020283F82C21E7E60C7A080857
:100BF000CDCCCC3E3B0903EB830307F00F0707EB9B
:100C000043030193DAE604EBC40308EB830383F8A0
:100C10003A71D3E604EBC40308EB830383F836711F
:100C200093F82C2142F0010283F82C21C6E60FB381
:100C300004EBC40308EB830393F8373153B904EB97
:100C4000C40308EB830383F8377193F9383188F8CC
:100C5000B535B3E6013BDBB204EBC40208EB82021C
:100C600082F83731002B3FF4A9AE92F9383188F879
:100C7000B535A3E698F8B525013A04EBC40308EBB3
:100C8000830383F8382199E604EBC40308EB83035C
:100C900083F83B7192E63F0104EBC40308EB830346
:100CA00083F82F718AE688F8AC7587E6002F3FF449
:100CB00085AE1F2F02D8C8F810717FE6D8ED437AB1
:100CC000B8EEE77A07EE907AF8EEE77A5FED386AE9
:100CD00067EEA67AC7EE276AC8ED456A6EE6019B05
:100CE000B3F1FF3F0FD03F2B10DC013B5BB288F824
:100CF000B53598F9B43501335BB288F8B43598F856
:100D00000421934205D003B0BDE8F08F4FF0FF33CC
:100D1000EDE798F9053188F8B435F4E7F8B50546FC
:100D2000B0F9B63501331BB2A0F8B635D0F81021B2
:100D3000934201D00024D1E090F8AC3533B1013BAF
:100D400080F8AC350023A5F8B635F3E7FFF770FD62
:100D5000F8E7ED2B29D1B5F9B6258A4225D104EB68
:100D6000C40205EB820292F82D21F2B104EBC40219
:100D700005EB820292F82C0140F0030082F82C016E
:100D8000B2F83201A2F830010020C2F84801002078
:100D900082F8390109E004EBC40205EB820292F803
:100DA0002C0140F0010082F82C01B5F9B625002A8B
:100DB00048D1E13B0A2B7ED8DFE803F018237D7D84
:100DC0007D7D7D7D7D2D3800B5F9B6258A42ECD13B
:100DD00004EBC40205EB8202002082F82E0192F897
:100DE0002C0140F0020082F82C01DEE704EBC40382
:100DF00005EB830393F8421149423046FFF7E0FCCC
:100E000059E004EBC40305EB830393F84311304628
:100E1000FFF7D6FC4FE004EBC40305EB830393F824
:100E2000441109013046FFF7EFFC44E004EBC40332
:100E300005EB830393F8451101F00F013046FFF7EE
:100E4000E3FC38E0013B092B35D8DFE803F0050A65
:100E500011870E84973434A749423046FFF7B0FC1F
:100E600029E03046FFF7ACFC25E03046FFF7CCFC2C
:100E700004EBC40305EB830393F83E01B3F8302180
:100E8000B3F834118A4234BF0127002700D340420F
:100E900002449142D4BF002301239F4259D004EB66
:100EA000C40305EB8303A3F8301193F82C2142F01F
:100EB000010283F82C2104EBC40305EB830393F8B0
:100EC0002C3113F0020F6DD104EBC40305EB830347
:100ED00093F82C3113F0010F69D1013495F80831E2
:100EE000A34269DD04EBC406B60006F594762E44F1
:100EF000043604EBC40305EB830393F83D11D5F8E6
:100F0000B0052E4F2E4A07FB0022C5F8B02593F8F6
:100F10003C31EC2B3FF458AF3FF61BAF002B3FF4B6
:100F20003AAFE92B7FF441AF41B1B5F9B62592FB59
:100F3000F1F001FB1022002A7FF437AF04EBC4026A
:100F400005EB82020020C2F84801002082F8390136
:100F50002BE791B2A3E73046FFF756FC04EBC4033E
:100F600005EB830393F83921013283F8392193F893
:100F70002C2142F0010283F82C219CE704EBC403EE
:100F800005EB830393F83921013283F8392193F873
:100F90002C2142F0020283F82C218CE73046FFF727
:100FA00033FC88E731462846FFF7ECFB8CE73146F7
:100FB0002846FFF785FB90E7F8BD00BF0D661900D6
:100FC0005FF36E3C2DE9F0472DED048B07460D468F
:100FD00014469A464B7803F1FF38D0F8F820C3EB5B
:100FE00003135B000C331A441179537943EA01234C
:100FF0009179D27942EA01224FEA4209012A2CDD95
:101000005B0003EB090607EBC80359683046FFF79E
:1010100023FA013007EE900AB8EEE79AAB7E07EEAE
:10102000903AF8EEE77A9FED4E7A67EE877AEB78A2
:1010300006EE903AF8EEE66A9FED4A6A86EE867A08
:10104000F7EE008A78EEC78A68EEA78ADFED466A77
:1010500037EE267A27EE278A60E06FF07F46D2E7E8
:1010600095ED077AFDEEC77A17EE901A4B1CB34246
:10107000B4BF4FF0000C4FF0010C09FB1C33B8EE6D
:10108000E76A37EE466AF7EE006A76EEC66A57F808
:1010900038C01CF9011007EE901AF8EEE77A67EEF7
:1010A000A67A1CF9033006EE903AF8EEE66A66EE90
:1010B000866A77EEA67AD5ED086A37EE267A85ED50
:1010C000077A94ED007A68EEA76A37EE267A23460F
:1010D000083384ED007A94ED017A68EE277A77EE92
:1010E000277AC4ED017A01321C468242B8DBD5ED85
:1010F000077A07EE106AB8EEC77AF4EEC77AF1EE17
:1011000010FA1CDB07EE109AB8EEC77A77EEC77AB2
:10111000C5ED077AAAEB000A00281DDDD5ED077A98
:1011200079EE677AD5ED086A87EEA67A5146FDEE2C
:10113000C77A17EE900AFFF78FF90022D5E707EB81
:10114000C80393ED017AB8EE477AF4EEC77AF1EE70
:1011500010FADFDB054BEB61BDEC048BBDE8F087DB
:101160000000003800007F4300000000000080BF46
:1011700010B540F23B439A425ADCB2F5167FC0F2FA
:101180008B800023132B55DCCC5CA4F12002D2B25F
:10119000002C18BF5E2A00F281800133F2E7013390
:1011A000272BEADC03EB430C3E4C14F81CE091F8CF
:1011B00038C4E645F3D103EB430C04EB4C0494F83C
:1011C00001C091F83944A445E9D103EB430C354CF7
:1011D00004EB4C0494F802C091F83A44A445DED1E3
:1011E00003EB430C2F4C04EB4C0494F803C091F830
:1011F0003B44A445D3D103EB43032A4A02EB430308
:101200005B7980F8083191F8B63380F8043191F8B1
:10121000B73380F8053101F56E73C0F8FC3001F288
:101220003C41C0F800111F2380F80731012036E04F
:101230000023B5E74FF0000CBCF10E0F14DC0022C8
:10124000152A0EDCCCEB0C135B0014331344CC5C7E
:10125000A4F12003DBB2002C18BF5E2B20D8013292
:10126000EEE70CF1010CE7E791F8D63180F8043194
:1012700091F8D73180F8053101F5EC73C0F8FC30F6
:1012800001F51671C0F800110F2380F8073104230F
:1012900080F80831012002E0002000E0002010BDAD
:1012A0000020FCE764D20008002918BF002800F0E5
:1012B000BC802DE9F04716461F4604468846002AA2
:1012C000CCBF00230123002F40F3B180002B40F05E
:1012D000AE8040F2BC51FFF7CFF8C4F8F880324638
:1012E00041462046FFF744FF002800F0A18094F813
:1012F0000891B9F1200F00F29D8094F804A10AF141
:10130000FF3313F0800F40F0978094F805319A4531
:1013100002D8002384F80531002584F806517F2D7A
:101320000DDCD4F8FC30595D5B57002B07DB94F8DB
:101330000601FFF795F884F806010135EFE794F808
:1013400006110131C9B284F8061101FB09F1090245
:10135000D4F80051A5EB0805002353450ADAD4F868
:10136000FC20D25C02FB09F205EB0222B24265DCF2
:101370000133F2E74B19B34262DC761B761A1D4645
:1013800045444FF000080AE000203146FFF764F8BA
:1013900004EBC808C8F804000544361AD04694F88F
:1013A0000731984512DAD4F8F82008F1010ACAEB9F
:1013B0000A135B000C33D118D35C487840EA032051
:1013C00044F838500128DFD94000DEE7002307E069
:1013D000602103EBC30304EB830383F82F1113464F
:1013E0004B4505DA5A1C12F0020FF1D0A021F0E7AC
:1013F0000623C4F81031C4F80C7107EE907AF8EEA9
:10140000E77ADFED106A87EEA67A84ED457A0E4B17
:10141000C4F8B035FF2384F8B5350523A4F8B635F4
:101420002046FFF77BFC012002E0002070470020EF
:10143000BDE8F0870020FBE70020F9E70020F7E790
:101440000020F5E700004842DEC0AD0B2DE9F04773
:10145000002818BF002940F083804FF0000A4FEAAF
:10146000CA00BDE8F087013495F80831A3421FDDBA
:1014700004EBC401890001F594712944043104EBA3
:10148000C40305EB830393F82D31002BEBD004EB61
:10149000C40305EB8303D3ED527AF5EEC07AF1EE87
:1014A00010FAE0DB33463A462846FFF78BFDDAE7D1
:1014B000A8EB0608B2444F4405F5B76393ED007AF4
:1014C00007EE906AF8EEE77A77EE877AC3ED007A56
:1014D00095ED457AF4EEC77AF1EE10FA1DDAB8F11F
:1014E000000FBCDDD5ED457A05F5B76393ED007AC5
:1014F00077EEC77AFDEEE77A17EE900A41460028AC
:1015000008BF0130FEF7A8FF06464FEAC00949466A
:101510003846FEF7B1FF0024A6E777EEC77AC3EDA1
:10152000007A2846FFF7FAFBD5F8B435FF2BD6D85A
:1015300095F9B43505EBE30292F8182103F007039F
:1015400042FA03F313F0010F89D0102105F58C70D6
:10155000FEF792FFD5F828310133C5F828317EE730
:101560004FEAD20805460F464FF0000AB7E70000E1
:101570002DE9F04182B0074688461546144BB3F872
:101580004841A4F12003134EF360304606F030F9D1
:10159000203D4FF4507303FB05F508FB04F404EB06
:1015A00044047A0102EB04120B4B196830230093B8
:1015B00020230A44094901EB4501304606F05AF957
:1015C0006421304606F072F902B0BDE8F08100BF38
:1015D0004C7C080814170020E40C0020047E080846
:1015E00070B505460E46144605E031462846FFF71D
:1015F000BFFF013501342278002AF6D170BD00000A
:10160000014B01221A607047D80C002010B5044627
:1016100009F0BFF8012800D010BD204609F058FAA3
:1016200090F90020124B1A7090F9013011490B709B
:1016300007EE902AF8EEE77ADFED0F6A67EEA67AFA
:101640000E4A92ED007A77EE677AC2ED007A07EEE5
:10165000903AF8EEE77A67EEA67A094B93ED007AB6
:1016600077EE277AC3ED007A064B01221A70D3E792
:10167000D50C0020D40C00200000003CD00C002031
:10168000CC0C002000000020FFEE007AB4EEE70A48
:10169000F1EE10FA09D4F7EE007AB4EEE70AF1EEB3
:1016A00010FA04DDB0EE670A7047BFEE000A70471B
:1016B000F8B52DED028B1E4A1368013313604FF409
:1016C00080721C491C48FFF7C1FE1C4B1860C708FC
:1016D0001B4B1F6000241FE0164E06EBC40696ED60
:1016E000000AFFF7D1FF9FED178A20EE080ABDEE32
:1016F000C00A154D10EE103A25F8243096ED010A77
:10170000FFF7C2FF20EE080ABDEEC00A05EB840514
:1017100010EE103A6B800134A742DDDC7A0092B201
:1017200009490A4807F06EFDBDEC028BF8BD00BF09
:10173000C0000020CC040020E80C0020C8000020DD
:10174000C400002000FEFF46CC000020441800200A
:1017500000B585B001F046FD01228DF800204FF064
:101760004043019318238DF8083003238DF80B3084
:1017700000238DF80A308DF80E208DF80F308DF88B
:101780000D208DF801308DF809308DF80C30684649
:1017900001F046FD042001F033FD05B05DF804FBC7
:1017A00070B5CCB04C22002139A80AF059F820229B
:1017B000002131A80AF054F8BC22002102A80AF046
:1017C0004FF8022004F0E6FF002301933C4B9A6996
:1017D00042F440429A619B6903F440430193394BC0
:1017E000DA6A42F00102DA62DB6A03F00103019374
:1017F000019B334B9B6913F4005FFAD0324A936A22
:1018000023F0030343F002039362012539954FF45B
:10181000A0233A930223429343934495782245921E
:1018200046931422479248930C23499300244A94E8
:101830004B9439A801F0CEFF3F2331930323329319
:101840003394082634964023359336934FF48062C0
:1018500037923893042131A802F0DAFB1B4B029334
:101860000395242304930423059306930793C0232D
:101870000893202309930A940B96154BB3F8402143
:101880000C92B3F842210D92B3F844210E92B3F8B2
:1018900046310F9310941194129413941994229436
:1018A0004FF4801323932A944FF400732E930DEB7F
:1018B000060002F025FE04F097FF4CB070BD00BF9B
:1018C00000480258000400580044025808104C21F7
:1018D0004C7C08082DE9F0412DED028BADF5916DA2
:1018E000FFF736FF4BF680335B4A5C495C48FFF7F5
:1018F000DBFCFEF76BFDFEF781FD04F0A5FFFFF7B3
:101900004FFF00F0F1F900F0DDFB05F059FD00F0AC
:101910007FFA05F0DDFE07F099FA07F0FFFA00F014
:1019200003FC07F0FBFE09F033F940F2FF720021DF
:101930004C4809F005FE002125E007EE901AF8EE6C
:10194000677AB4EE007A27EE877AF2EE006A27EE25
:10195000267ABCEEC77A17EE102AB5EE007A67EE4B
:10196000877AB1EE007A67EE877AFCEEE77A17EEB7
:10197000903A1B0243EA0243134343F07F4322AAF7
:1019800042F821300131FF29D7D9374C00234FF4D9
:10199000807222A9204601F068FE0021204601F055
:1019A000A5FE204601F0C0FE00F0DAFC4FF04040FA
:1019B0002E4B18602E4B2F4A1A604FF000720021F8
:1019C00009F04EFF01F054F99FED2B0AB3EE041A13
:1019D000F0EE400A00F00CFF002001F0C1F84FF4D7
:1019E000807226491E48FFF731FD254B1860C70855
:1019F000244B1F6000241FE0204E06EBC40696ED2A
:101A0000000AFFF741FE9FED208A60EE087AFDEEA6
:101A1000E77A1E4D17EE903A25F8243096ED010A2C
:101A2000FFF732FE60EE087AFDEEE77A05EB8405FB
:101A300017EE903A6B800134A742DDDC7A0092B257
:101A40001249134807F0DEFB4FF47A77002635463B
:101A500048E0251A00E100BFB8A6070054D30008EB
:101A6000E80C0020701F0020A4120020E00C0020D1
:101A7000E40C0020000040C000000000CC04002066
:101A8000C8000020C400002000FEFF46CC0000205B
:101A9000441800207A4CDFF840820022216840463A
:101AA00001F079FE774B00221A600221404601F0D6
:101AB00055FE754A136875490B60216811602360F3
:101AC00007F04CFE6F4B1B68002BF9D0704BB3F83E
:101AD0004821B3F84A3103FB02F20021684B186831
:101AE00009F0BEFE07F03AFE04F0E8FE0446694B3A
:101AF00093F90030012BF5D14FF00108654B83F8C5
:101B00000080654B93ED000ADFED647A30EE270A22
:101B100083ED000AB0EE401AF0EE400A00F06EFFCE
:101B200007EE905AB8EE677AF7EE006AC6EE877A4B
:101B30009FED5B7A67EE877AFCEEE77ACDED017A6E
:101B400000963B462A46574909A809F04DFE09AAC6
:101B500041460020FFF744FD534DD5ED007AFCEEE1
:101B6000E77A17EE902A514909A809F03DFE09AA23
:101B700002210020FFF734FDD5ED017AFCEEE77A73
:101B800017EE902A4A4909A809F02EFE09AA032156
:101B90000020FFF725FD02F041F9464BA3FB003280
:101BA000920C454909A809F01FFE09AA042100204A
:101BB000FFF716FD414B1B680193DFF82081D8F831
:101BC000003000933E4B93F900303E4A92F90020DA
:101BD0003D4909A809F008FE09AA05210020FFF7E0
:101BE000FFFCD8F80020394B1A60DFF8F48000229F
:101BF00004A9404601F03BFA002203A9404601F047
:101C00005CFA9DF8123000939DF811309DF8102079
:101C10002F4909A809F0E8FD09AA06210020FFF7CD
:101C2000DFFC9DF80F3000939DF80D309DF80E20DD
:101C3000284909A809F0D8FD09AA07210020FFF7C3
:101C4000CFFC284601F074F800F090FF04F036FE57
:101C50008442BFF4FEAE051B201E18BF0120B54212
:101C600094BF002300F0010303B12E46BD422CBFF8
:101C7000002000F0010000283FF40CAF2F4609E7D8
:101C8000E40C0020D80C0020E00C0020DC0C00202C
:101C90004C7C080800000020B8000020CDCC4C3D52
:101CA00000007A4498D1000884CD0A08B8D1000811
:101CB000C4D1000883DE1B43D0D10008C40000203B
:101CC000D40C0020D50C0020DCD10008BC00002082
:101CD000F0D1000800D20008A4120020C0000020AB
:101CE0004C1300207047000030B58FB000240994D9
:101CF0000A940B940C940D94434BD3F8E02042F0DB
:101D00001002C3F8E020D3F8E02002F010020092A5
:101D1000009AD3F8E02042F48072C3F8E020D3F8B0
:101D2000E02002F480720192019AD3F8E02042F0A0
:101D30002002C3F8E020D3F8E02002F02002029253
:101D4000029AD3F8E02042F08002C3F8E020D3F8F2
:101D5000E02002F080020392039AD3F8E02042F0E0
:101D60000402C3F8E020D3F8E02002F00402049259
:101D7000049AD3F8E02042F00102C3F8E020D3F83F
:101D8000E02002F001020592059AD3F8E02042F02B
:101D90000202C3F8E020D3F8E02002F0020206922B
:101DA000069AD3F8E02042F04002C3F8E020D3F8CE
:101DB000E02002F040020792079AD3F8E02042F0B8
:101DC0000802C3F8E020D3F8E03003F008030893DA
:101DD000089B0E4D22460821284603F02FFE0423BF
:101DE00009930A940B9409A9284603F029FD0823B6
:101DF000099301230A930B940C9409A9284603F034
:101E00001FFD0FB030BD00BF004402580010025843
:101E100070B58EB0284C294B23604FF000436360AF
:101E20004FF08043A3604FF00053E3604FF08053C6
:101E30002361872363610526A66140F21713E361DE
:101E40002223236240F21753636240F22233A362DB
:101E500040F22F53E36240F225332363002584F8D8
:101E6000345084F8355084F83650204601F0E0FABA
:101E700001954FF48061029103954FF440720492F2
:101E80000596FF23069307934FF4C0600890072040
:101E900009904FF040400A900B910C928DF834302D
:101EA0008DF835308DF836302A4601A9204601F0EC
:101EB000A8FB0EB070BD00BFA4120020001000509F
:101EC0000268764B9A4200D070472DE9F0418EB0FF
:101ED000734BD3F8E42042F00802C3F8E420D3F8AF
:101EE000E42002F008020092009AD3F8E02042F4C5
:101EF0008072C3F8E020D3F8E02002F480720192EF
:101F0000019AD3F8E02042F02002C3F8E020D3F891
:101F1000E02002F020020292029AD3F8E02042F080
:101F20000402C3F8E020D3F8E02002F00402039298
:101F3000039AD3F8E02042F08002C3F8E020D3F8FF
:101F4000E02002F080020492049AD3F8E02042F0EC
:101F50000102C3F8E020D3F8E02002F0010205926C
:101F6000059AD3F8E02042F00202C3F8E020D3F84B
:101F7000E02002F002020692069AD3F8E02042F036
:101F80004002C3F8E020D3F8E02002F040020792BC
:101F9000079AD3F8E02042F00802C3F8E020D3F813
:101FA000E03003F008030893089B4FF400630993A3
:101FB00002230A9300240B9403250C9509230D9307
:101FC00009A9384803F03CFC1023099309A93648B5
:101FD00003F036FC0995DFF8E88009A9404603F0D4
:101FE0002FFC4FF480530993304D09A9284603F084
:101FF00027FC4FF4806309930E230D9309A92C4805
:1020000003F01EFC412309932A4F09A9384603F027
:1020100017FC78230993284E09A9304603F010FCD9
:102020004FF4E063099309A9404603F009FC4023FB
:10203000099309A9284603F003FC8023099309A901
:10204000284603F0FDFB0823099309A91B4803F068
:10205000F7FB4FF4007309930A230D9309A938463F
:1020600003F0EEFB4FF4807309930D230D9309A940
:10207000304603F0E5FB22462146582001F080F867
:10208000582001F08DF822462146592001F078F8B9
:10209000592001F085F80EB0BDE8F0810010005025
:1020A0000044025800200258001C02580018025830
:1020B000001402580008025800000258000C025890
:1020C0000004025800B587B00023019302930393E4
:1020D0000493059300930A480A4A026043607F22F2
:1020E0008260FF22C26003618361C361436100F0CB
:1020F00069FF10B907B05DF804FBFFF7F3FDF9E7DE
:102100004C130020004000580268054B9A4200D052
:102110007047044A136F43F400431367F8E700BFA6
:10212000004000580044025800B583B00B4BD3F870
:10213000D82042F00102C3F8D820D3F8D83003F0F9
:1021400001030193019B002211460B2001F018F8B6
:102150000B2001F025F803B05DF804FB00440258A1
:10216000FEE7FEE7FEE7FEE7FEE7704770477047D1
:1021700008B504F097FB08BD08B5024803F06EFFF0
:1021800008BD00BFCC17002008B5024807F0D4F8FE
:1021900008BD00BF4418002008B5024801F0C4F98A
:1021A00008BD00BFA412002008B5024801F0BCF928
:1021B00008BD00BFA412002008B5024806F05FFD6C
:1021C00008BD00BF9818002082B0074BD3F8F42058
:1021D00042F00202C3F8F420D3F8F43003F0020313
:1021E0000193019B02B0704700440258F0B585B0DE
:1021F00004460D46FF238DF80C30030A8DF80D3090
:102200000B4E4FF47A770097022303AAE021304661
:1022100004F04EFD8DF80C408DF80D500097022310
:1022200003AAE021304604F043FD05B0F0BD00BF35
:1022300080170020F0B585B004460D46FF238DF8C9
:102240000C30030A8DF80D30124E4FF47A77009758
:10225000022303AAE021304604F02AFDE4B28DF8FF
:102260000C402B0A8DF80D300097022303AAE021C1
:10227000304604F01DFD01348DF80C408DF80D50F2
:102280000097022303AAE021304604F011FD05B0B7
:10229000F0BD00BF8017002070B584B00446FF2356
:1022A0008DF80C30030A8DF80D300F4D4FF47A760F
:1022B0000096022303AAE021284604F0F9FC8DF8D9
:1022C0000C400096012303AAE021284604F0F0FC0C
:1022D0000096012303AAE021284604F0A7FD9DF8FB
:1022E0000C0004B070BD00BF8017002038B5044654
:1022F0000D46FFF7D1FF40EA0501C9B22046FFF7BE
:1023000075FF38BD38B505460C46FFF7C5FFE443F9
:1023100064B200EA0401C9B22846FFF767FF38BD7E
:1023200000B585B00021F920FFF760FFA021FE2055
:10233000FFF75CFF4FF47A7302934FF480730193BD
:10234000054B009301230022A021044804F02CFE39
:1023500005B05DF804FB00BF70130020801700205B
:10236000F8B5FFF7DDFF00211820FFF73FFF002140
:102370001920FFF73BFF00211A20FFF737FF00214C
:102380001E20FFF733FF794DB5F85E410134A4B24A
:10239000B5F866717E1CB6B201214FF48850FFF784
:1023A000A5FF4021CB20FFF721FF022141F2B820F9
:1023B000FFF7A8FF002141F20D10FFF717FF0021E2
:1023C0002520FFF713FF80212420FFF70FFF402176
:1023D0004FF40070FFF796FF052140F20220FFF74F
:1023E00091FF002140F20320FFF700FF0021E520CC
:1023F000FFF7FCFE0021F020FFF7F8FE002140F27D
:102400001120FFF7F3FE002140F20120FFF7EEFE5E
:1024100005218020FFF7EAFE02210E20FFF766FF6C
:10242000092140F21220FFF7E1FE20212320FFF7CF
:10243000DDFE0021A020FFF7D9FEB5F84C11A12048
:10244000FFF7F8FEB5F85211A320FFF7F3FE21467F
:10245000A520FFF7EFFE3146A720FFF7EBFE012195
:10246000A920FFF7E7FEB5F85411013189B2AD207C
:10247000FFF7E0FEB5F86261023EB6B23146AB202E
:10248000FFF7D8FE3146AF20FFF7D4FE0021B12080
:10249000FFF7D0FE0021B520FFF7CCFE0021B320CE
:1024A000FFF7C8FE0021B720FFF7C4FE0021B920C6
:1024B000FFF7C0FE2146BB20FFF7BCFE0021BD2078
:1024C000FFF7B8FE3946BF20FFF7B4FEB5F8481154
:1024D000611A89B2C520FFF7ADFE2146C720FFF77C
:1024E000A9FE4421CB20FFF781FE0021CA20FFF77F
:1024F0007DFE0421CB20FFF779FE042141F20D106F
:10250000FFF774FE022141F2B820FFF7EFFE4FF40F
:10251000C87004F0D9F9FF211820FFF767FEFF21EA
:102520001920FFF763FEFF211A20FFF75FFE23212A
:102530002020FFF75BFE45212120FFF757FE0121F8
:102540002220FFF753FE41214FF48850FFF74EFE43
:10255000642004F0B9F900214FF48850FFF746FEDB
:102560000821FD20FFF742FEF8BD00BF4C7C0808A3
:10257000D0ED017A91ED027A67EE877A90ED027ADA
:10258000D1ED016A27EE267A77EEC77AC2ED007A9E
:10259000D0ED027A91ED007A67EE877A90ED007ABD
:1025A000D1ED026A27EE267A77EEC77AC2ED017A7C
:1025B000D0ED007A91ED017A67EE877A90ED017A9D
:1025C000D1ED006A27EE267A77EEC77AC2ED027A5D
:1025D000704738B52DED028B90ED008A28EE080A81
:1025E000D0ED017A67EEA77A30EE270AD0ED027AB5
:1025F00067EEA77A30EE270AB5EEC00AF1EE10FAC0
:1026000018DB04460D4609F0C1FCB5EE400AF1EEB8
:1026100010FA0FD0C8EE007AC5ED007A94ED017A79
:10262000C7EE007AC5ED017A94ED027AC7EE007A22
:10263000C5ED027ABDEC028B38BDD0ED006AD1ED5C
:10264000007A66EEA76AD0ED017A91ED047A67EE22
:10265000877A76EEA76AD0ED027A91ED087A67EE76
:10266000877A76EEA76AD1ED0C7A76EEA76AC2ED8C
:10267000006A90ED007AD1ED017A27EE277AD0ED4D
:10268000017A91ED056A67EE867A37EE277AD0ED0A
:10269000027A91ED096A67EE867A37EE277AD1EDF4
:1026A0000D7A37EE277A82ED017AD0ED007A91ED3E
:1026B000026A67EE867A90ED016AD1ED065A26EE3F
:1026C000256A77EE867A90ED026AD1ED0A5A26EEF7
:1026D000256A77EE867A91ED0E6A77EE867AC2EDFC
:1026E000027A90ED006AD1ED035A26EE256AD0ED0C
:1026F000015A91ED075A65EE855A36EE256AD0EDFE
:10270000025A91ED0B5A65EE855A36EE256AD1EDE7
:102710000F5A36EE256AB7EE005AC5EE065A66EE37
:10272000A56AC2ED006A27EE257A82ED017A67EE8E
:10273000A57AC2ED027A704770B590B0054608469A
:1027400016461C46032304AA29460AF083FC07A95F
:1027500004A8FFF73EFF01AA07A93046FFF708FFCC
:102760000DA901A8FFF735FF0AAA0DA907A8FFF7D1
:10277000FFFE0D9B23600A9B6360079BA360002301
:10278000E3600E9A22610B9A6261089AA261E3618A
:102790000F9A22620C9A6262099AA262E3626B4605
:1027A000032229460DA80AF09BFCDDED007AF1EE2C
:1027B000677AC4ED0C7A6B46032229460AA80AF010
:1027C0008FFCDDED007AF1EE677AC4ED0D7A6B4691
:1027D0000322294607A80AF083FCDDED007AF1EE1A
:1027E000677AC4ED0E7A4FF07E53E36310B070BD8C
:1027F00008B5064880ED000AC0ED010A80ED021A16
:10280000034B044A0449FFF797FF08BD100000205E
:102810007416002004000020CC16002010B52DED09
:10282000048BB0EE609AB0EE418AF0EE618A044605
:10283000F6EE007A20EE270AB7EEC00A09F0CCFBCC
:10284000B7EE006B86EE007BB7EEC77B78EEC86A0A
:10285000C8EEA67A4FF0000C0AE003EB8C0204EB02
:102860008202002111600133032BF6DD0CF1010C13
:10287000BCF1030F01DC0023F6E7C7EE096AC4EDE3
:10288000006A84ED057AC4ED0A7A4FF07E53E36264
:1028900067EEC87AC4ED0E7ABDEC048B10BD10B59E
:1028A0002DED088BB0EE609AF0EE419A0446B6EE3C
:1028B00000BA20EE0B8AB0EE480A0AF03DFBF0EEBB
:1028C000408AB0EE480A0AF085FBB0EE408A29EE55
:1028D0000B9AB0EE490A0AF02FFBB0EE40AAB0EE18
:1028E000490A0AF077FBF0EE40AA69EE8B9AB0EE47
:1028F000690A0AF021FBB0EE409AB0EE690A0AF0CC
:1029000069FB68EE0A6A26EE807A68EEAA7A27EEFC
:10291000896A37EE067A67EE807A66EE896A77EE24
:10292000E67A28EE2A8A28EE095A68EE8A8A68EE44
:10293000806A35EE665A28EE008A68EE898A38EE9B
:10294000280A67EEA76A25EE056A76EE865A75EEC6
:10295000A55AB7EE004A74EE655AC4ED005A67EE08
:10296000274A65EE002A74EEA25A75EEA55AC4ED08
:10297000015A67EE055A27EE803A75EEC33A73EEB8
:10298000A33AC4ED023A0023E36074EEE24A74EE27
:10299000A44AC4ED044A67EE074A36EE246A36EECE
:1029A000066A34EE466A84ED056A67EE857A27EE9C
:1029B000007A37EE876A36EE066A84ED066AE361CE
:1029C00035EE836A36EE066A84ED086A77EEC77ADA
:1029D00077EEA77AC4ED097A76EEA47A77EEA77A35
:1029E00074EE677AC4ED0A7AE36223636363A363D8
:1029F00084ED0F4ABDEC088B10BD000008B5054BF7
:102A000083ED000AC3ED010A83ED021A0248FFF7C5
:102A100046FF08BDC0160020F4150020002116E076
:102A200003EB810200EB82024FF0000CC2F800C001
:102A30000133032B0ADC9942F2D103EB810200EB54
:102A400082024FF07E5CC2F800C0F1E70131032939
:102A500001DC0023EDE780ED0C0AC0ED0D0A80EDEE
:102A60000E1A704710B584B00C466A461449FFF739
:102A7000E4FD144BB3F8482107EE902AF8EE677A8C
:102A80009DED007A27EE277AF6EE006A67EEA67AC9
:102A900077EE277AC4ED007AB3F84A3107EE903A20
:102AA000F8EE677A9DED017A27EE677A67EEA67AEF
:102AB00077EE277AC4ED017A029BA36004B010BDC3
:102AC000F41400204C7C08082DE9F04F83B0054633
:102AD0000E4691469A46171A002FB8BF7F4282428F
:102AE00014DD01230193AAEB0608B8F1000FB8BF6B
:102AF000C8F10008B2450DDD4FF0010B47450EDC73
:102B0000C8F10004002C08DB641015E04FF0FF331F
:102B10000193E8E74FF0FF3BF0E70134F4E73C4670
:102B2000002F01DB641007E07C1CFBE723464445D3
:102B300001DA3B445E441C46B1B2A8B200F0B4F9DD
:102B40004D4508BF564507D07B42A342EEDAA4EBC1
:102B50000803019A1544EAE703B0BDE8F08F0000CE
:102B6000014B1870704700BFB014002008B5054B2A
:102B70001B78022B03D0034B00221A7008BD00F013
:102B8000A5F9F8E7B114002070B5254B254A264970
:102B90002648FFF7D1FD264BB3F8482100EE902AD6
:102BA000F8EE600AB3F84A3107EE903AF8EE677A29
:102BB0002048F7EE001A9FED201AC0EEA70A9FEDFD
:102BC0001F0AFFF72BFE1E4B1E4893ED021AD3ED92
:102BD000010A93ED000AFFF762FE1B4B1B4893EDC1
:102BE000021AD3ED010A93ED000AFFF717FF184C04
:102BF0002246184918480AF0F5F8184E184D324682
:102C0000294620460AF0EEF8164A174930460AF0DF
:102C1000E9F8164A294620460AF0E4F870BD00BFDC
:102C20007416002004000020CC16002010000020A4
:102C30004C7C0808341600200AD7233C14AE473FCA
:102C4000C0160020F4150020B4160020B415002092
:102C50007814002098140020A0140020881400206C
:102C6000A81400209014002080140020701400206C
:102C700008B500F017F91C4B042211461B480AF056
:102C800057F91B4B042211461A480AF051F91A4B06
:102C90000422114619480AF04BF9194B0422114637
:102CA00018480AF045F9184B0422114617480AF053
:102CB0003FF9174B0422114616480AF039F9164B12
:102CC0000422114615480AF033F9154B0422114627
:102CD00014480AF02DF9FFF757FF0023124A13702A
:102CE000124A137008BD00BF74160020A8140020FB
:102CF000F4150020A0140020B41500209814002022
:102D0000F414002090140020B41400208814002033
:102D10003416002080140020741500207814002040
:102D20003415002070140020B1140020B0140020CD
:102D30002DE9F0439BB00546FFF726FFD5ED007A5D
:102D4000FCEEE77A17EE908AD5ED017AFCEEE77A91
:102D500017EE907A002696E006EB080202EB42029C
:102D600005EBC202D2ED027AFCEEE77A17EE903A5A
:102D7000D2ED037AFCEEE77A17EE909AD2ED047A60
:102D8000FCEEE77A17EE904A03EB430305EBC3032F
:102D90009A680A92DA680B921B690C9316A90AA822
:102DA000FFF760FE09EB490905EBC9039A68069233
:102DB000DA6807921B69089312A906A8FFF752FE6A
:102DC00004EB440405EBC4039A680292DA680392A8
:102DD0001B690493002305930EA902A8FFF742FE86
:102DE000FF240094DDED137AFDEEE77A17EE903ABA
:102DF000DDED127AFDEEE77A17EE902ADDED177A17
:102E0000FDEEE77A17EE901ADDED167AFDEEE77A21
:102E100017EE900AFFF758FE0094DDED0F7AFDEEF5
:102E2000E77A17EE903ADDED0E7AFDEEE77A17EECF
:102E3000902ADDED137AFDEEE77A17EE901ADDEDBC
:102E4000127AFDEEE77A17EE900AFFF73DFE009446
:102E5000DDED177AFDEEE77A17EE903ADDED167AA2
:102E6000FDEEE77A17EE902ADDED0F7AFDEEE77AB8
:102E700017EE901ADDED0E7AFDEEE77A17EE900A66
:102E8000FFF722FE0136BE42FFF466AF044B1B780B
:102E900013B9034B01221A701BB0BDE8F08300BFC9
:102EA000B114002070470000064BB3F8483103FB13
:102EB0000100054B1A68835C2033FF2B00D9FF23E8
:102EC000835470474C7C0808E40C002000200EE07E
:102ED00002FB0C039B00A3F17E534FF40001196029
:102EE0000132074BB3F84A319342F1D80130044B19
:102EF000B3F848C1844501D90022F2E7704700BF0A
:102F00004C7C080838B504460268D36823F0A00357
:102F1000D36003F0D3FC05462368DB6813F0200F71
:102F200007D103F0CBFC401BB0F57A7FF4D9032026
:102F300000E0002038BD70B50368DA6812F0400F79
:102F400002D00026304670BD04464FF0FF32DA60F2
:102F500003F0B4FC054600262368DB6813F0400F3D
:102F6000F0D103F0ABFC401BB0F57A7FF4D9032617
:102F700084F82160F0E7000010B50446104BDA68D1
:102F800022F04002DA609B6813F0200F06D1FFF7B1
:102F9000B9FF98B1032084F821000FE0084A936834
:102FA00023F020039360FFF7ADFF10B1032084F8F6
:102FB0002100034A936843F02003936010BD00BFD3
:102FC00000400058002844D038B5044690F821301D
:102FD000A3B1022384F821302368CA225A622368ED
:102FE00053225A622046FFF7A6FF60B12368FF22F2
:102FF0005A6210B9012384F8213038BD80F820309E
:10300000FFF782F8E5E722689168134B0B40936065
:1030100021688A68636820690343A06903431343F6
:103020008B60A168E368226843EA0143136120468C
:10303000FFF7A2FF0028D9D12268D36C23F0030345
:10304000D3642168CB6CE26965692A431343CB647E
:10305000CCE70120704700BFBFFF8FFF030903EBE0
:10306000830300F00F0000EB4300C0B2704770B55F
:1030700003689B6A4B6003681B69C3F30E038B6094
:1030800003681B68C3F305400870C3F306264E703F
:1030900003F07F058D70C3F38053CB705AB90C4693
:1030A000FFF7DCFF20703046FFF7D8FF607028463E
:1030B000FFF7D4FFA070002070BD70B503685B6897
:1030C000C3F30740C870C3F304264E7003F03F05F6
:1030D0008D70C3F342330B705AB90C46FFF7BEFF35
:1030E000E0703046FFF7BAFF60702846FFF7B6FF82
:1030F000A070002070BD0000002804DB0901C9B2E7
:10310000044B1954704700F00F000901C9B2024B7B
:103110001954704700E400E014ED00E000B500F041
:103120000700C0F1070CBCF1040F28BF4FF0040CDE
:10313000031D062B0FD9C31E4FF0FF3E0EFA0CF0F5
:1031400021EA000199400EFA03FE22EA0E0241EA4A
:1031500002005DF804FB0023EEE700000649CB689F
:1031600023F4E0631B041B0C000200F4E060034343
:10317000024A1A43CA60704700ED00E00000FA05F9
:1031800010B50446054BD868C0F30220FFF7C6FF10
:1031900001462046FFF7B0FF10BD00BF00ED00E084
:1031A000002807DB00F01F02400901239340024A78
:1031B00042F82030704700BF00E100E00138B0F174
:1031C000807F0BD24FF0E0235861054AF02182F84E
:1031D00023100020986107221A6170470120704770
:1031E00000ED00E0BFF35F8F044B5A6A22F4803297
:1031F0005A620022C3F89420704700BF00ED00E03F
:1032000040F00100054BC3F894005A6A42F4803242
:103210005A62BFF34F8FBFF36F8F704700ED00E02E
:103220004278164BC3F898200378FBB14368134AE1
:10323000C2F89C30017BC37A1B0643EA0173817A92
:1032400043EAC143417B43EA8143817B43EA4143F3
:10325000C17B43EA0143417A43EA0123017A43EA0D
:10326000410301780B43C2F8A0307047034B0022A2
:10327000C3F89C20C3F8A020704700BF00ED00E019
:1032800070B54D680368DC68C4F30B4425444FEA0D
:10329000C21C03EBC213D3F8884004F47044C3F893
:1032A00088400B680468E668C6F30B463344013374
:1032B00004EBC21443EA0543C4F88830CD680368C0
:1032C000DC68C4F30A04254403EBC213D3F88C4032
:1032D00004F47044C3F88C408B680468E668C6F355
:1032E0000A0E7344013304EBC21443EA0543C4F8E5
:1032F0008C30036803EBC213D3F8944024F0070426
:10330000C3F89440036803EBC2130C69C3F89440FC
:1033100091F831E091F832608D69036803EBC213D4
:10332000D3F89C400024C3F89C4091F8303043EA25
:103330000E2343EA0643066806EBC21E43EA056312
:10334000CEF89C300EF1840E036803EBC213D3F861
:10335000985025F0FF05C3F89850036803EBC2139B
:103360004D69C3F89850036803EBC213D3F8A0600B
:103370002D4D3540C3F8A0500D6A036803EBC2130E
:10338000CE693543C3F8A050036803EBC213D3F8EA
:10339000AC50C3F8AC40036803EBC2134A6AC3F8ED
:1033A000AC200B6983B1013B062B05D8DFE803F0A5
:1033B0003A06080604040A00012506E0022504E096
:1033C000022502E0022500E0042503686344D3F8E7
:1033D000B02002F0E022C3F8B0208B6A05FB03F4B2
:1033E0004B680A689B1A05FB03F3073302686244C3
:1033F00043EA0443C2F8B03003686344D3F8B440EE
:103400000A4A2240C3F8B42003686344CA6AC3F876
:10341000B42003686344D3F8842042F00102C3F867
:10342000842070BD0325D0E7F8F8FFFF00F8FFFF08
:10343000002872D038B5044690F8A130002B67D030
:10344000022384F8A1302268936923F070439361CA
:1034500021688A696368A0680343E06803432069C0
:10346000034313438B6121688A682D4B1A408A609D
:1034700020688268A169656941EA05410A43826062
:103480002168CA681A40CA602068C268216AE56972
:1034900041EA05410A43C26021680A691A400A618B
:1034A00020680269A16A656A41EA05410A4302612E
:1034B00021684A6913404B61E06A21684B69226BBD
:1034C00042EA004213434B6194F8350094F83630D9
:1034D0001B042168CA6A02F07F42CA622168CA6A74
:1034E00043EA002394F8340003431343CB62226879
:1034F000536B43F0060353632268936943F001035F
:1035000093610020C4F8A400012384F8A13038BDE1
:1035100080F8A030FEF7D4FC92E70120704700BF8E
:1035200000F800F07047704770B5044603689D6B63
:103530005E6B15F0040F02D016F0040F12D115F0D7
:10354000020F02D016F0020F21D115F0010F02D0A8
:1035500016F0010F32D115F0080F02D016F0080F47
:103560003DD170BD5A6B22F004025A6303680422F5
:10357000DA63D0F8A43043F00103C0F8A43080F837
:10358000A120002380F8A030FFF7CCFFD7E7226806
:10359000536B23F00203536323680222DA63D4F8E7
:1035A000A4301343C4F8A430042384F8A1300023CA
:1035B00084F8A0302046FFF7B5FFC6E72268536BBA
:1035C00023F00103536322680123D36384F8A130FD
:1035D000002384F8A0302046FFF7A5FFBBE7226850
:1035E000536B23F00803536323680822DA63012333
:1035F00084F8A130002384F8A0302046FEF700F8BC
:10360000AFE7F8B590F8A030012B2CD004460D465A
:103610001646012780F8A070022380F8A1304FF0F1
:10362000340C0CFB020C0CF1380C8E46BEE80F007B
:10363000ACE80F00BEE80F00ACE80F00BEE80F00DA
:10364000ACE80F00DEF80030CCF8003032462946F6
:103650002046FFF715FE23685F6284F8A170002002
:1036600084F8A000F8BD0220FCE730B5054690F8CC
:10367000A000012838D0012085F8A000022085F89C
:10368000A1004FF0000E12E00868C4B244EA0E64D4
:1036900000F47F4C44EA0C0400F47F00044304313E
:1036A000286800EBC31CCCF8C4400EF1010E96450F
:1036B00013D2342000FB0350806C0628E4D10EEBBB
:1036C0000E1C0868C4B244EA0C6400F47F4C44EA5F
:1036D0000C0400F47F000443E1E7012385F8A130E6
:1036E000002085F8A00030BD0220FCE790F8A03053
:1036F000012B17D0012280F8A020022380F8A130EE
:10370000036803EBC111D1F8843043F01003C1F812
:10371000843003685A6280F8A120002380F8A0302A
:10372000184670470220704790F8A030012B11D046
:10373000012280F8A020022380F8A13006498B697D
:1037400023F480338B6180F8A120002380F8A0301F
:1037500018467047022070470010005090F8A030C3
:10376000012B16D010B4012280F8A020022380F88B
:10377000A1300468636B43F0080363630368596214
:1037800080F8A120002380F8A03018465DF8044B93
:1037900070470220704738B590F8A030012B17D041
:1037A0000446012580F8A050022380F8A13034237C
:1037B00002FB03F303F138002344D96521182046A6
:1037C000FFF75EFD84F8A150002084F8A00038BD0A
:1037D0000220FCE7002800F0028338B504460368A5
:1037E00013F0010F25D09C4A136903F03803926A45
:1037F000102B15D0182B0FD06368B3F5803F3FD046
:10380000002B53D1944B1A6822F480321A601A6844
:1038100022F480221A6038E002F00302022AEBD17F
:103820008D4B1B6813F4003F03D06368002B00F03E
:10383000D882236813F0020F00F08B80864A136948
:10384000926A13F038035AD0182B55D0E368002B36
:1038500000F0C88080490A6822F0190213430B6007
:1038600003F02CF805467C4B1B6813F0040F40F066
:10387000978003F023F8401B0228F4D90320B7E215
:10388000754A136843F48033136063682BB303F005
:1038900015F80546704B1B6813F4003FC9D103F0BF
:1038A0000DF8401B6428F5D90320A1E2B3F5A02F41
:1038B00009D0694B1A6822F480321A601A6822F41F
:1038C00080221A60E1E7644B1A6842F480221A6091
:1038D0001A6842F480321A60D7E702F0EFFF05461B
:1038E0005D4B1B6813F4003FA3D002F0E7FF401BC1
:1038F0006428F5D903207BE212F0030FA6D1564BC2
:103900001B6813F0040F03D0E368002B00F06B82F8
:1039100002F0EEFF41F20303984212D82269402AD6
:1039200007D04D494B6823F47C3343EA02334B60A4
:103930000FE0494A536823F47C3343F40033536067
:1039400007E0454A536823F0FE43216943EA0163D7
:103950005360236813F0100F00F088803E4A13690B
:1039600003F03803926A082B54D0182B4ED0E36929
:10397000002B00F0B880384A136843F080031360CE
:1039800002F09CFF0546344B1B6813F4807F40F027
:10399000888002F093FF401B0228F4D9032027E21D
:1039A00002F0A6FF41F20303984212D82269402A8E
:1039B00007D029494B6823F47C3343EA02334B6038
:1039C000C7E7254A536823F47C3343F4003353603C
:1039D000BFE7214A536823F0FE43216943EA0163AC
:1039E0005360B6E71C4A136823F00103136002F02A
:1039F00065FF0546184B1B6813F0040FA9D002F0B1
:103A00005DFF401B0228F5D90320F1E102F003021B
:103A1000012AACD1104B1B6813F4807F03D0E369FB
:103A2000802B40F0E28102F063FF41F203039842F1
:103A300014D8226A202A07D007494B6823F0F8439C
:103A400043EA82634B6011E0034A536823F0F84372
:103A500043F08043536009E0004402589A4AD36817
:103A600023F07C53216A43EA0163D360236813F097
:103A7000080F60D06369002B49D0934A536F43F01D
:103A80000103536702F01AFF05468F4B5B6F13F07B
:103A9000020F50D102F012FF401B0228F5D903207B
:103AA000A6E102F025FF41F20303984212D8226AF0
:103AB000202A07D084494B6823F0F84343EA826305
:103AC0004B60D3E7804A536823F0F84343F08043C8
:103AD0005360CBE77C4AD36823F07C53216A43EAE6
:103AE0000163D360C2E7784A136823F08003136050
:103AF00002F0E4FE0546744B1B6813F4807FB5D0DA
:103B000002F0DCFE401B0228F5D9032070E16E4A6A
:103B1000536F23F00103536702F0D0FE05466A4B52
:103B20005B6F13F0020F06D002F0C8FE401B0228A4
:103B3000F5D903205CE1236813F0200F29D0A36995
:103B40009BB1614A136843F48053136002F0B6FEE0
:103B500005465D4B1B6813F4005F1AD102F0AEFE00
:103B6000401B0228F5D9032042E1574A136823F489
:103B70008053136002F0A2FE0546534B1B6813F4FA
:103B8000005F06D002F09AFE401B0228F5D9032000
:103B90002EE1236813F0040F21D1636A002B00F09B
:103BA0002681494A126902F03802182A00F0EE8094
:103BB000022B75D0444A136823F08073136002F01F
:103BC0007DFE0446404B1B6813F0007F00F0DC8054
:103BD00002F074FE001B0228F4D9032008E13B4ADE
:103BE000136843F48073136002F068FE0546374B98
:103BF0001B6813F4807F06D102F060FE401B64282E
:103C0000F5D90320F4E0A368012B0AD00BBB2E4B9F
:103C10001A6F22F001021A671A6F22F004021A6763
:103C200004E0294A136F43F001031367A36833B319
:103C300002F044FE0546244B1B6F13F0020FACD17B
:103C400002F03CFE401B41F288339842F3D9032036
:103C5000CEE0052B09D01C4B1A6F22F001021A6727
:103C60001A6F22F004021A67E0E7174B1A6F42F04E
:103C700004021A671A6F42F001021A67D6E702F0CF
:103C80001DFE0546104B1B6F13F0020F85D002F08E
:103C900015FE401B41F288339842F3D90320A7E078
:103CA000094A136823F08073136002F007FE05468B
:103CB000054B1B6813F0007F0AD002F0FFFD401B8C
:103CC0000228F5D9032093E0004402580048025826
:103CD0004F4B996A4F4A0A40A16AE06A41EA0011D3
:103CE0000A439A62226B013AC2F30802616B0139FE
:103CF000490289B20A43A16B0139090401F4FE01AA
:103D00000A43E16B0139090601F0FE410A431A63D7
:103D1000DA6A22F00102DA62596B3F4A0A40A16C6A
:103D200042EAC1025A63DA6A22F00C02216C0A43A9
:103D3000DA62DA6A22F00202616C0A43DA62DA6A53
:103D400042F48032DA62DA6A42F40032DA62DA6A23
:103D500042F48022DA62DA6A42F00102DA621A6818
:103D600042F080721A6002F0A9FD0446284B1B68DD
:103D700013F0007F06D102F0A1FD001B0228F5D947
:103D8000032035E0002033E0002031E0204A916A32
:103D9000106B012B2DD001F00303A26A93422AD1AC
:103DA000C1F30511E36A994227D1C0F30802236BDE
:103DB000013B9A4223D1C0F34622636B013B9A42F6
:103DC0001FD1C0F30642A36B013B9A421BD1C0F343
:103DD0000660E36B013B984217D1002008E0012008
:103DE0007047012004E0012002E0012000E00020F3
:103DF00038BD0120FCE70120FAE70120F8E70120A7
:103E0000F6E70120F4E70120F2E70120F0E700BF28
:103E1000004402580CFCFFFF0700FFFF744B1B69B6
:103E200003F03803102B00F0DE80182B0FD00BB1FD
:103E3000704870476E4B1B6813F0200F00F0D58060
:103E40006B4B1B68C3F3C1036B48D840704710B479
:103E5000674B9A6A02F003029C6AC4F30510D96AA0
:103E600001F001015B6BC3F3CC0301FB03F307EE2D
:103E7000903AF8EE677A14F47C7F00F09480012A7F
:103E800066D0022A00F09280E2B107EE100AF8EE46
:103E9000476A9FED5A6A86EE267A554B1B6BC3F331
:103EA000080306EE903AF8EE666A9FED556A67EEF3
:103EB000867A76EEA77AF7EE006A77EEA67A27EE94
:103EC000277A61E04A4B1B6813F0200F23D0484942
:103ED0000A68C2F3C102484BD34007EE103AF8EE2D
:103EE000476A07EE100AB8EE476A86EE867A0B6BD1
:103EF000C3F3080306EE903AF8EE666A9FED406A57
:103F000067EE867A76EEA77AF7EE006A77EEA67A03
:103F100027EE277A38E007EE100AF8EE476A9FEDA1
:103F2000396A86EE267A324B1B6BC3F3080306EE22
:103F3000903AF8EE666A9FED326A67EE867A76EE20
:103F4000A77AF7EE006A77EEA67A27EE277A1BE0CB
:103F500007EE100AF8EE476A9FED286A86EE267A89
:103F6000234B1B6BC3F3080306EE903AF8EE666A28
:103F70009FED236A67EE867A76EEA77AF7EE006AFF
:103F800077EEA67A27EE277A194B1B6BC3F34623ED
:103F9000013307EE903AF8EE677AC7EE276AFCEE37
:103FA000E67A17EE900A5DF8044B704707EE100AA8
:103FB000F8EE476A9FED146A86EE267A0C4B1B6B6F
:103FC000C3F3080306EE903AF8EE666A9FED0C6ABA
:103FD00067EE867A76EEA77AF7EE006A77EEA67A33
:103FE00027EE277AD0E7094870470348704700BF9B
:103FF0000044025800093D000090D0030024744A98
:10400000000000390024744C0024F44A00127A00A5
:10401000002800F0328170B50D4604469B4B1B68AA
:1040200003F00F038B420BD2984A136823F00F035F
:104030000B431360136803F00F038B4240F01F81A2
:10404000236813F0040F0CD02269914B9B6903F095
:1040500070039A4205D98E498B6923F070031A4385
:104060008A61236813F0080F0CD06269884BDB6902
:1040700003F070039A4205D98549CB6923F0700398
:104080001A43CA61236813F0100F0CD0A269804B49
:10409000DB6903F4E0639A4205D97D49CB6923F4D7
:1040A000E0631A43CA61236813F0200F0CD0E26961
:1040B000774B1B6A03F070039A4205D974490B6A67
:1040C00023F070031A430A62236813F0020F0CD026
:1040D000E2686F4B9B6903F00F039A4205D96C4964
:1040E0008B6923F00F031A438A61236813F0010FD1
:1040F00041D0674A936923F47063A1680B439361CD
:104100006368022B0AD0032B27D0012B2CD0604AE6
:10411000126812F0040F06D10120ADE0126812F40B
:10412000003F00F0AE805A490A6922F007021343AB
:104130000B6102F0C3FB0646554B1B6903F03803C5
:104140006268B3EBC20F16D002F0B8FB801B41F2DD
:1041500088339842F0D903208EE04D4A126812F05D
:10416000007FE0D1012087E0494A126812F4807F85
:10417000D9D1012080E0236813F0020F0CD0E2684F
:10418000434B9B6903F00F039A4205D240498B6968
:1041900023F00F031A438A613C4B1B6803F00F03A3
:1041A000AB420AD9394A136823F00F032B4313603B
:1041B000136803F00F03AB4265D1236813F0040FBB
:1041C0000CD02269324B9B6903F070039A4205D2EE
:1041D0002F498B6923F070031A438A61236813F017
:1041E000080F0CD062692A4BDB6903F070039A4216
:1041F00005D22749CB6923F070031A43CA612368AB
:1042000013F0100F0CD0A269214BDB6903F4E063BB
:104210009A4205D21E49CB6923F4E0631A43CA616E
:10422000236813F0200F0CD0E269194B1B6A03F0CE
:1042300070039A4205D216490B6A23F070031A43A1
:104240000A62FFF7EBFD12498B69C3F30323114A9E
:10425000D35C03F01F03D8408B6903F00F03D35CDA
:1042600003F01F0320FA03F30B4A13600B4B186093
:104270000B4B186802F0C0FA70BD01207047012096
:10428000FAE70120F8E70120F6E700BF002000521E
:10429000004402589C750E082400002028000020CD
:1042A0002000002008B5FFF7B9FD0B4A9369C3F35E
:1042B00003230A49CB5C03F01F0320FA03F392693E
:1042C00002F00F02885C00F01F0023FA00F0044A9D
:1042D0001060044A136008BD004402589C750E0823
:1042E0002400002028000020404B9B6A03F00303B9
:1042F000032B79D070B505460E463C4A136823F06F
:104300008063136002F0DAFA0446384B1B6813F03E
:10431000006F06D002F0D2FA031B022BF5D903205E
:1043200070BD324B9A6A22F47C32296842EA01322B
:104330009A626A68013AC2F30802A968013949021F
:1043400089B20A43E9680139090401F4FE010A430C
:1043500029690139090601F0FE410A439A63DA6AC4
:1043600022F0C00269690A43DA62DA6A22F02002A6
:10437000A9690A43DA62DA6A22F01002DA62D96BBA
:104380001B4A0A40E96942EAC102DA63DA6A42F08A
:104390001002DA62C6B91A46DB6A43F40023D3621C
:1043A000124A136843F08063136002F087FA0446F0
:1043B0000E4B1B6813F0006F14D102F07FFA001B44
:1043C0000228F5D90320ABE7012E05D0074AD36AAE
:1043D00043F40013D362E3E7044AD36A43F480133F
:1043E000D362DDE700209BE70120704700440258BC
:1043F0000700FFFF404B9B6A03F00303032B79D0B8
:1044000070B505460E463C4A136823F0805313608E
:1044100002F054FA0446384B1B6813F0005F06D0D4
:1044200002F04CFA031B022BF5D9032070BD324B6E
:104430009A6A22F07C72296842EA01529A626A689A
:10444000013AC2F30802A9680139490289B20A4354
:10445000E9680139090401F4FE010A4329690139B7
:10446000090601F0FE410A431A64DA6A22F4406246
:1044700069690A43DA62DA6A22F40072A9690A43B6
:10448000DA62DA6A22F48072DA62596C1B4A0A40F4
:10449000E96942EAC1025A64DA6A42F48072DA6275
:1044A000C6B91A46DB6A43F48003D362124A136822
:1044B00043F08053136002F001FA04460E4B1B6870
:1044C00013F0005F14D102F0F9F9001B0228F5D9AE
:1044D0000320ABE7012E05D0074AD36A43F080736F
:1044E000D362E3E7044AD36A43F40003D362DDE70F
:1044F00000209BE701207047004402580700FFFF9F
:10450000F8B50446036813F0006F30D0436EB3F57E
:10451000001F26D00ED8EBB1B3F5801F07D10221C2
:104520000430FFF7E1FE054645B12E4621E00126A5
:1045300035461EE0B3F5401F09D10025954A136D9D
:1045400023F44013616E0B431365002611E001262E
:1045500035460EE08F4AD36A43F40033D362002518
:10456000ECE702212430FFF745FF0546DCE7002693
:104570003546236813F4807F14D0636D042B30D844
:10458000DFE803F0032228080800824AD36A43F4D4
:104590000033D36245BB7F4A136D23F00703616D7F
:1045A0000B431365236813F4007F2FD0A36D802B7A
:1045B00049D01ED8002B40D0402B17D10021201D00
:1045C000FFF792FE054619E00021201DFFF78CFE43
:1045D0000546DFE7002104F12400FFF70BFF054645
:1045E000D8E701263546DDE72E46DBE701263546CE
:1045F0000CE0C02B02D0B3F5807F1BD155BB654AC0
:10460000136D23F4E073A16D0B431365236813F45A
:10461000806F45D0D4F8A430B3F5800F38D01ED8C1
:1046200083B3B3F5001F17D10021201DFFF75CFEF7
:1046300005461AE001263546E8E7564AD36A43F4B0
:104640000033D362DAE7002104F12400FFF7D2FE41
:104650000546D3E72E46D9E70126354620E0B3F5D7
:10466000C00F02D0B3F5000F09D1C5B9494A936D07
:1046700023F46003D4F8A4100B43936510E00126E3
:1046800035460DE0434AD36A43F40033D362ECE786
:10469000002104F12400FFF7ADFE0546E5E72E46B4
:1046A000236813F4006F23D0D4F8A830B3F1007F4F
:1046B00041D00DD8002B38D0B3F1807F05D1002137
:1046C000201DFFF711FE054608E0012635460FE0E4
:1046D000B3F1407F02D0B3F1806F23D1002D31D1EF
:1046E0002C4A936D23F0E063D4F8A8100B43936534
:1046F000236813F0007F2ED0A36C202B3FD026D848
:1047000033B1102B20D1234AD36A43F40033D36250
:10471000002D3AD11F4AD36C23F03003A16C0B4318
:10472000D36418E001263546E2E71A4AD36A43F417
:104730000033D362D2E7002104F12400FFF75AFED0
:104740000546CBE72E46D3E70126354603E0302B5E
:10475000DED001263546236813F4805F2BD0E36D4D
:10476000B3F5005F4CD017D8002B43D0B3F5805F72
:104770000DD10021201DFFF7B7FD054612E00221F3
:10478000201DFFF7B1FD0546C2E72E46E3E70126EF
:10479000354610E000440258B3F5405F02D0B3F54F
:1047A000804F24D1002D32D1754A136D23F4E0439C
:1047B000E16D0B431365236813F4005F37D0236E5C
:1047C000B3F5003F51D027D83BB1B3F5803F20D19E
:1047D0000121201DFFF788FD0546002D4CD1684AB8
:1047E000136D23F4E023216E0B4313651FE00126B4
:1047F0003546E0E7624AD36A43F40033D362D1E737
:10480000002104F12400FFF7F5FD0546CAE72E4616
:10481000D1E7012635460AE0B3F5802FDDD0B3F5A8
:10482000A02FDAD0B3F5403FD7D001263546236814
:1048300013F4804F30D0D4F8AC30B3F1005F44D0E3
:104840001FD83BB1B3F1805F18D10121201DFFF7C4
:104850004BFD0546002D3FD1494A936D23F0E043BF
:10486000D4F8AC100B43936516E0012104F1240049
:10487000FFF7C0FD0546B0E72E46D8E701263546CE
:104880000AE0B3F1804FE5D0B3F1A04FE2D0B3F12D
:10489000405FDFD001263546236813F4004F09D06E
:1048A000E36EB3F1805F19D0B3F1005F24D0D3B1D0
:1048B00001263546236813F0807F32D0636C032BCA
:1048C00059D8DFE803F026215226012104F1240003
:1048D000FFF790FD0546BDE72E46DDE7284AD36A7F
:1048E00043F40033D3626DB9254A136D23F040536E
:1048F000E16E0B431365DDE70121201DFFF7F4FC9A
:104900000546F0E72E46D5E71D4AD36A43F4003347
:10491000D3629DBB1A4AD36C23F00303616C0B4333
:10492000D364236813F4800F2CD1236813F0010F94
:1049300000F0A380A36F282B00F29D80DFE803F036
:104940008B9B9B9B9B9B9B9B869B9B9B9B9B9B9BDC
:10495000949B9B9B9B9B9B9B8B9B9B9B9B9B9B9BBE
:104960008B9B9B9B9B9B9B9B8B000221201DFFF79E
:10497000BBFC0546CDE701263546D2E72E46D0E7FB
:10498000004402588F4A136843F48073136001F0A7
:1049900095FF07468B4B1B6813F4807F05D101F010
:1049A0008DFFC01B6428F5D90325002D4AD1864B05
:1049B0001B6FD4F8B020534013F4407F0CD0824BCF
:1049C0001A6F22F44072196F41F480311967196F20
:1049D00021F4803119671A67D4F8B030B3F5807FBD
:1049E00015D08DBBD4F8B03003F44072B2F5407FDF
:1049F0001ED0754A136923F47C53136172490B6FFF
:104A0000D4F8B020C2F30B0213430B678DE701F01B
:104A100055FF07466C4B1B6F13F0020FE1D101F0FD
:104A20004DFFC01B41F288339842F3D90325D8E7E4
:104A30006548026922F47C52644901EA1313134366
:104A40000361DBE72E4670E72E466EE70121201D4D
:104A5000FFF74AFC0546E5B95B4A536D23F038037E
:104A6000A16F0B43536508E0012104F12400FFF717
:104A7000C1FC0546EFE701263546236813F0020F17
:104A800016D0636F052B27D8DFE803F00A051F0A4D
:104A90000A0A2E46F1E70121201DFFF725FC0546F5
:104AA000EDB9494A536D23F00703616F0B4353651A
:104AB000236813F0040F22D0D4F89030052B43D88C
:104AC000DFE803F0140F3B141414012104F1240057
:104AD000FFF790FC0546E3E701263546E8E72E465A
:104AE000E6E70121201DFFF7FFFB05467DBB364AA7
:104AF000936D23F00703D4F890100B43936523685C
:104B000013F0200F33D0D4F88C30B3F1005F4CD0C9
:104B100022D83BB1B3F1805F1BD10021201DFFF7EC
:104B2000E3FB0546002D47D1274A536D23F0E043B0
:104B3000D4F88C100B43536519E0012104F12400D3
:104B4000FFF758FC0546D1E701263546D7E72E4644
:104B5000D5E7012635460AE0B3F1804FE2D0B3F144
:104B6000A04FDFD0B3F1405FDCD00126354623688B
:104B700013F0400F37D0D4F89830B3F5006F52D00F
:104B800026D83BB1B3F5806F18D10021201DFFF767
:104B9000ABFB0546002D4DD10B4A936D23F4E0533A
:104BA000D4F898100B4393651DE0022104F1240012
:104BB000FFF720FC0546B5E72E46D8E70126354627
:104BC00011E000BF0048025800440258CFFFFF0028
:104BD000B3F5805FDED0B3F5A05FDBD0B3F5406FF7
:104BE000D8D001263546236813F0800F32D0D4F890
:104BF0009C30B3F5804F00F09D8020D83BB1B3F5D9
:104C0000005F19D10021201DFFF76EFB0546002D26
:104C100040F09780A34A936D23F46043D4F89C102E
:104C20000B43936516E0022104F12400FFF7E2FB39
:104C30000546AFE72E46D6E7012635460AE0B3F52E
:104C4000004FE4D0B3F5204FE1D0B3F5C04FDED034
:104C500001263546236813F0080F0CD0D4F88030B5
:104C6000B3F5805F6FD08F4A536D23F44053D4F86F
:104C700080100B435365236813F0100F0CD0D4F849
:104C80009430B3F5807F67D0864A936D23F44073E8
:104C9000D4F894100B439365236813F4002F0BD0C2
:104CA000D4F8A030B3F5803F6ED0B3F5003F61D0AB
:104CB000002B5AD001263546236813F4802F0CD0E0
:104CC000D4F88430B3F5001F76D0B3F5401F69D017
:104CD000B3F5801F61D001263546236813F4803F69
:104CE00007D0E36C002B70D0B3F5803F7BD001265A
:104CF0003546236813F0005F7DD1236813F4003F2D
:104D000000F08680E36FB3F5807F00F0BA807CD935
:104D1000B3F5007F03D0B3F5407F40F0B080002DA5
:104D200040F0B5805F4A536D23F44073E16F0B434D
:104D300053656DE0022104F12400FFF75BFB05469B
:104D400065E72E4686E7022104F12400FFF752FBB7
:104D5000002888D0012686E7022104F12400FFF70D
:104D600049FB002890D001268EE70021201DFFF787
:104D7000BBFA05467DB94B4A936D23F44033D4F812
:104D8000A0100B43936597E7022104F12400FFF77D
:104D900031FB0546EEE72E468EE7424AD36A43F4DE
:104DA0000033D3627DB93F4A536D23F44013D4F8E6
:104DB00084100B43536590E7012104F12400FFF7B1
:104DC00019FB0546EEE72E4687E7364AD36A43F4D9
:104DD0000033D3626DB9334AD36C23F48033E16C72
:104DE0000B43D36485E70221201DFFF77DFA0546BA
:104DF000F0E72E467DE7022104F12400FFF7FAFADE
:104E000000283FF47AAF012677E7002B87D00126F0
:104E1000236813F4801F06D0224A136D23F0004349
:104E2000216F0B431365236813F0805F07D01D4A81
:104E3000136923F48043D4F8B4100B43136123683F
:104E400013F4001F06D0174A136D23F08073A16E70
:104E50000B431365236813F0804F09D0114B1A6977
:104E600022F400421A611A69D4F8B8100A431A6190
:104E70002368002B0DDB06B101263046F8BD012664
:104E8000C6E7084AD36A43F40033D36247E72E46A5
:104E9000BEE7044AD36C23F04053216D0B43D36427
:104EA000E9E700BF0044025808B5FFF7FBF9054BDE
:104EB0001B6AC3F30213044AD35C03F01F03D840F8
:104EC00008BD00BF004402589C750E0810B4784B12
:104ED0009A6A9C6AC4F3053CD96AC1F30011DB6B82
:104EE000C3F3CC0301FB03F314F47C3F00F0DB803D
:104EF00002F0030207EE903AF8EE677A012A66D0D4
:104F0000022A00F0B380E2B107EE10CAF8EE476A59
:104F10009FED686A86EE267A654B9B6BC3F30803A8
:104F200006EE903AF8EE666A9FED636A67EE867A5F
:104F300076EEA77AF7EE006A77EEA67A27EE277A62
:104F400061E05B4B1B6813F0200F23D058490A68BF
:104F5000C2F3C102594BD34007EE103AF8EE476A4C
:104F600007EE10CAB8EE476A86EE867A8B6BC3F3FB
:104F7000080306EE903AF8EE666A9FED4F6A67EE18
:104F8000867A76EEA77AF7EE006A77EEA67A27EEB3
:104F9000277A38E007EE10CAF8EE476A9FED486AB4
:104FA00086EE267A424B9B6BC3F3080306EE903ADB
:104FB000F8EE666A9FED406A67EE867A76EEA77A2B
:104FC000F7EE006A77EEA67A27EE277A1BE007EE67
:104FD00010CAF8EE476A9FED376A86EE267A344BA0
:104FE0009B6BC3F3080306EE903AF8EE666A9FEDFA
:104FF000326A67EE867A76EEA77AF7EE006A77EE87
:10500000A67A27EE277A2A4A936BC3F3462307EE44
:10501000903AF8EE677AF7EE006A77EEA67A87EEB6
:10502000276ABCEEC66A80ED006A936BC3F3064341
:1050300007EE903AF8EE677A77EEA67A87EE276A5F
:10504000BCEEC66A80ED016A936BC3F3066307EE9C
:10505000903AF8EE677A77EEA67AC7EE276AFCEE0A
:10506000E66AC0ED026A5DF8044B704707EE10CAAD
:10507000F8EE476A9FED136A86EE267A0C4B9B6B1F
:10508000C3F3080306EE903AF8EE666A9FED0A6AEB
:1050900067EE867A76EEA77AF7EE006A77EEA67A62
:1050A00027EE277AAFE70023036043608360DAE7E7
:1050B000004402580024744A000000390090D003D4
:1050C0000024744C0024F44A10B4784B9A6A9C6A09
:1050D000C4F3055CD96AC1F300215B6CC3F3CC0354
:1050E00001FB03F314F07C7F00F0DB8002F003028D
:1050F00007EE903AF8EE677A012A66D0022A00F0AD
:10510000B380E2B107EE10CAF8EE476A9FED686A15
:1051100086EE267A654B1B6CC3F3080306EE903AC5
:10512000F8EE666A9FED636A67EE867A76EEA77A96
:10513000F7EE006A77EEA67A27EE277A61E05B4BFE
:105140001B6813F0200F23D058490A68C2F3C1022C
:10515000594BD34007EE103AF8EE476A07EE10CAF3
:10516000B8EE476A86EE867A0B6CC3F3080306EE48
:10517000903AF8EE666A9FED4F6A67EE867A76EEB1
:10518000A77AF7EE006A77EEA67A27EE277A38E05C
:1051900007EE10CAF8EE476A9FED486A86EE267A57
:1051A000424B1B6CC3F3080306EE903AF8EE666AB6
:1051B0009FED406A67EE867A76EEA77AF7EE006A90
:1051C00077EEA67A27EE277A1BE007EE10CAF8EEF4
:1051D000476A9FED376A86EE267A344B1B6CC3F321
:1051E000080306EE903AF8EE666A9FED326A67EEC3
:1051F000867A76EEA77AF7EE006A77EEA67A27EE41
:10520000277A2A4A136CC3F3462307EE903AF8EE46
:10521000677AF7EE006A77EEA67A87EE276ABCEE29
:10522000C66A80ED006A136CC3F3064307EE903A3A
:10523000F8EE677A77EEA67A87EE276ABCEEC66A42
:1052400080ED016A136CC3F3066307EE903AF8EE43
:10525000677A77EEA67AC7EE276AFCEEE66AC0EDBB
:10526000026A5DF8044B704707EE10CAF8EE476A11
:105270009FED136A86EE267A0C4B1B6CC3F3080372
:1052800006EE903AF8EE666A9FED0A6A67EE867A55
:1052900076EEA77AF7EE006A77EEA67A27EE277AFF
:1052A000AFE70023036043608360DAE700440258FD
:1052B0000024744A000000390090D0030024744C8C
:1052C0000024F44A10B4784B9A6A9C6AC4F3051C13
:1052D000D96A01F001015B6BC3F3CC0301FB03F35B
:1052E00014F47C7F00F0DB8002F0030207EE903ABA
:1052F000F8EE677A012A66D0022A00F0B380E2B1A4
:1053000007EE10CAF8EE476A9FED686A86EE267AC5
:10531000654B1B6BC3F3080306EE903AF8EE666A22
:105320009FED636A67EE867A76EEA77AF7EE006AFB
:1053300077EEA67A27EE277A61E05B4B1B6813F0C5
:10534000200F23D058490A68C2F3C102594BD340F9
:1053500007EE103AF8EE476A07EE10CAB8EE476A51
:1053600086EE867A0B6BC3F3080306EE903AF8EEEE
:10537000666A9FED4F6A67EE867A76EEA77AF7EE59
:10538000006A77EEA67A27EE277A38E007EE10CA91
:10539000F8EE476A9FED486A86EE267A424B1B6B11
:1053A000C3F3080306EE903AF8EE666A9FED406A92
:1053B00067EE867A76EEA77AF7EE006A77EEA67A3F
:1053C00027EE277A1BE007EE10CAF8EE476A9FED3A
:1053D000376A86EE267A344B1B6BC3F3080306EE5E
:1053E000903AF8EE666A9FED326A67EE867A76EE5C
:1053F000A77AF7EE006A77EEA67A27EE277A2A4A8E
:10540000136BC3F3462307EE903AF8EE677AF7EE94
:10541000006A77EEA67A87EE276ABCEEC66A80ED50
:10542000006A136BC3F3064307EE903AF8EE677A0F
:1054300077EEA67A87EE276ABCEEC66A80ED016A2F
:10544000136BC3F3066307EE903AF8EE677A77EED4
:10545000A67AC7EE276AFCEEE66AC0ED026A5DF83E
:10546000044B704707EE10CAF8EE476A9FED136AC7
:1054700086EE267A0C4B1B6BC3F3080306EE903ABC
:10548000F8EE666A9FED0A6A67EE867A76EEA77A8C
:10549000F7EE006A77EEA67A27EE277AAFE70023C9
:1054A000036043608360DAE7004402580024744AD2
:1054B000000000390090D0030024744C0024F44A0A
:1054C00000B58BB0B0F5807F1BD0B0F5007F46D023
:1054D000B0F5806F77D0B0F5006F00F0AB80B0F51D
:1054E000805F00F0DE80B0F5002F00F01181B0F594
:1054F000803F00F03981B0F5804F00F047810020F7
:1055000071E1964B1B6D03F00703042B00F26481DD
:10551000DFE803F0050A0F031400914863E107A8D0
:10552000FFF7D0FE08985EE104A8FFF7CFFC0498CF
:1055300059E101A8FFF7C8FD019854E1874BDB6CE6
:1055400013F0405300F04A81B3F1805F00F04881CE
:10555000B3F1005F01D0002045E1824843E17F4B79
:105560001B6D03F4E073802B26D014D9C02B00F000
:105570003981B3F5807F18D1784BDB6C13F0405341
:1055800000F03481B3F1805F00F03281B3F1005F4D
:1055900017D0002027E153B1402B04D104A8FFF716
:1055A00095FC04981FE100201DE100201BE107A8E5
:1055B000FFF788FE089816E101A8FFF785FD01981E
:1055C00011E168480FE1654B9B6D03F46003B3F58F
:1055D000800F28D015D9B3F5C00F00F00B81B3F5BB
:1055E000000F19D15D4BDB6C13F0405300F00481C8
:1055F000B3F1805F00F00281B3F1005F18D00020AA
:10560000F1E05BB1B3F5001F04D104A8FFF75EFC25
:105610000498E8E00020E6E00020E4E007A8FFF7B7
:1056200051FE0898DFE001A8FFF74EFD0198DAE08F
:105630004C48D8E0494B9B6D03F0E063B3F1007F29
:1056400028D015D9B3F1407F00F0DA80B3F1806F34
:1056500019D1424BDB6C13F0405300F0D380B3F10F
:10566000805F00F0D180B3F1005F18D00020BAE075
:105670005BB1B3F1807F04D104A8FFF727FC049845
:10568000B1E00020AFE00020ADE007A8FFF71AFE70
:105690000898A8E001A8FFF717FD0198A3E031489A
:1056A000A1E02E4B1B6D03F4E043B3F5005F28D05F
:1056B00015D9B3F5405F00F0A980B3F5804F19D13B
:1056C000264BDB6C13F0405300F0A280B3F1805FF7
:1056D00000F0A080B3F1005F18D0002083E05BB140
:1056E000B3F5805F04D104A8FFF7F0FB04987AE0DB
:1056F000002078E0002076E007A8FFF7E3FD089897
:1057000071E001A8FFF7E0FC01986CE015486AE041
:10571000124B9B6D03F44033B3F5803F0AD0B3F5D1
:10572000003F0CD00BB100205DE004A8FFF7CEFBDA
:10573000049858E001A8FFF7C7FC039853E0074B13
:10574000DB6C13F0405367D0B3F1805F66D0B3F1E8
:10575000005F01D0002046E0024844E000440258C7
:105760000080BB0000127A00304BDB6C13F48033F6
:1057700002D033B9002036E007A8FFF7A3FD089850
:1057800031E004A8FFF7A2FB06982CE0274B9B6DA5
:1057900003F0E043B3F1405F42D010D8B3F1805F33
:1057A00015D0B3F1005F04D101A8FFF78DFC02987A
:1057B00019E013B9FFF778FB15E0002013E0B3F10F
:1057C000804F2FD0B3F1A04F2ED119480BE004A881
:1057D000FFF77CFB059806E0002004E0154802E096
:1057E000154800E015480BB05DF804FB1148FAE7D6
:1057F0001148F8E71148F6E70E48F4E70E48F2E7DB
:105800000E48F0E70B48EEE70B48ECE70B48EAE7F9
:105810000848E8E70848E6E70648E4E70648E2E71C
:105820000448E0E70448DEE70020DCE700440258D3
:1058300000127A000090D00300093D000080BB00F8
:10584000F0B583B0002340E0092400E0002404FA0E
:105850000CF434430235764E46F825404FF0B04400
:10586000D4F88050D44325EA02064F6817F4803FED
:1058700001D042EA05064FF0B045C5F88060D5F882
:10588000845004EA05064F6817F4003F01D042EA4D
:1058900005064FF0B045C5F884602D6804EA05069A
:1058A0004F6817F4801F01D042EA05064FF0B0455B
:1058B0002E606D682C404E6816F4001F01D042EA3D
:1058C00005044FF0B042546001330A6832FA03F421
:1058D00000F0AB804FF0010C0CFA03FC1CEA020252
:1058E000F2D04C68651E112C18BF012D01D9122C65
:1058F00012D185685E000324B44025EA0405CC6813
:10590000B4402C438460456825EA0C054C68C4F318
:1059100000149C402C434460C5684FEA430E0324A6
:1059200004FA0EF46FEA040C25EA04058C6804FA04
:105930000EF42C43C4604C68122C18BF022C0FD1FB
:10594000DD08083550F8257003F00706B6000F246F
:10595000B44027EA04070C69B4403C4340F82540B2
:1059600004680CEA040C4C6804F0030404FA0EF416
:1059700044EA0C0404604C6814F0805FA4D02D4C01
:10598000D4F8F45045F00205C4F8F450D4F8F440CB
:1059900004F002040194019C9D08AE1C244C54F8B0
:1059A000266003F0030C4FEA8C0C0F2404FA0CF46D
:1059B00026EA0406204CA0423FF448AF04F5806478
:1059C000A04222D004F58064A04220D004F5806477
:1059D000A0421ED004F58064A0421CD004F580646F
:1059E000A0421AD004F58064A04218D004F5806467
:1059F000A04216D004F58064A04214D004F580645F
:105A0000A0423FF421AF0A2421E701241FE702242A
:105A10001DE703241BE7042419E7052417E70624E0
:105A200015E7072413E7082411E703B0F0BD00BF12
:105A30000004005800440258000002580AB1816175
:105A4000704709048161704703682749274A9342D8
:105A500018BF8B422FD0183293422CD01832934269
:105A600029D01832934226D01832934223D01832CC
:105A7000934220D0183293421DD002F556729342C1
:105A800019D01832934216D01832934213D01832DC
:105A9000934210D0183293420DD0183293420AD05C
:105AA0001832934207D01832934204D023F0FF03F8
:105AB0008365806D704710B4D9B210390C4AA2FBCF
:105AC0000142C2F302120B4CA25CC2655F2907D9E6
:105AD000094A1A4004328265806D5DF8044B7047B4
